{
  "contractName": "Fund",
  "abi": [
    {
      "constant": true,
      "inputs": [],
      "name": "owner",
      "outputs": [
        {
          "name": "",
          "type": "address"
        }
      ],
      "payable": false,
      "stateMutability": "view",
      "type": "function"
    },
    {
      "constant": true,
      "inputs": [
        {
          "name": "",
          "type": "address"
        }
      ],
      "name": "funds",
      "outputs": [
        {
          "name": "fundCreator",
          "type": "address"
        },
        {
          "name": "ipfsHash",
          "type": "string"
        }
      ],
      "payable": false,
      "stateMutability": "view",
      "type": "function"
    },
    {
      "inputs": [],
      "payable": false,
      "stateMutability": "nonpayable",
      "type": "constructor"
    },
    {
      "constant": false,
      "inputs": [
        {
          "name": "x",
          "type": "string"
        }
      ],
      "name": "set",
      "outputs": [],
      "payable": false,
      "stateMutability": "nonpayable",
      "type": "function"
    },
    {
      "constant": true,
      "inputs": [],
      "name": "get",
      "outputs": [
        {
          "name": "",
          "type": "string"
        }
      ],
      "payable": false,
      "stateMutability": "view",
      "type": "function"
    },
    {
      "constant": false,
      "inputs": [
        {
          "name": "ipfs",
          "type": "string"
        }
      ],
      "name": "createFund",
      "outputs": [],
      "payable": false,
      "stateMutability": "nonpayable",
      "type": "function"
    },
    {
      "constant": true,
      "inputs": [],
      "name": "getAllFunds",
      "outputs": [
        {
          "name": "",
          "type": "string"
        }
      ],
      "payable": false,
      "stateMutability": "view",
      "type": "function"
    },
    {
      "constant": false,
      "inputs": [],
      "name": "donateToFund",
      "outputs": [],
      "payable": true,
      "stateMutability": "payable",
      "type": "function"
    },
    {
      "constant": false,
      "inputs": [
        {
          "name": "withdrawAmount",
          "type": "uint256"
        }
      ],
      "name": "withdrawFunds",
      "outputs": [],
      "payable": true,
      "stateMutability": "payable",
      "type": "function"
    },
    {
      "constant": true,
      "inputs": [],
      "name": "balance",
      "outputs": [
        {
          "name": "",
          "type": "uint256"
        }
      ],
      "payable": false,
      "stateMutability": "view",
      "type": "function"
    }
  ],
  "bytecode": "0x608060405234801561001057600080fd5b50336000806101000a81548173ffffffffffffffffffffffffffffffffffffffff021916908373ffffffffffffffffffffffffffffffffffffffff16021790555060018081905550610900806100676000396000f300608060405260043610610099576000357c0100000000000000000000000000000000000000000000000000000000900463ffffffff168063155dd5ee1461009e5780631c69b464146100be57806340b44a131461014e5780634ed3885e146101b75780635adc5aa0146102205780636d4ce63c1461022a5780638da5cb5b146102ba578063b69ef8a814610311578063e2ae93fb1461033c575b600080fd5b6100bc6004803603810190808035906020019092919050505061042b565b005b3480156100ca57600080fd5b506100d36104d0565b6040518080602001828103825283818151815260200191508051906020019080838360005b838110156101135780820151818401526020810190506100f8565b50505050905090810190601f1680156101405780820380516001836020036101000a031916815260200191505b509250505060405180910390f35b34801561015a57600080fd5b506101b5600480360381019080803590602001908201803590602001908080601f01602080910402602001604051908101604052809392919081815260200183838082843782019150505050505091929192905050506104d5565b005b3480156101c357600080fd5b5061021e600480360381019080803590602001908201803590602001908080601f01602080910402602001604051908101604052809392919081815260200183838082843782019150505050505091929192905050506105a9565b005b6102286105c3565b005b34801561023657600080fd5b5061023f6105c5565b6040518080602001828103825283818151815260200191508051906020019080838360005b8381101561027f578082015181840152602081019050610264565b50505050905090810190601f1680156102ac5780820380516001836020036101000a031916815260200191505b509250505060405180910390f35b3480156102c657600080fd5b506102cf610667565b604051808273ffffffffffffffffffffffffffffffffffffffff1673ffffffffffffffffffffffffffffffffffffffff16815260200191505060405180910390f35b34801561031d57600080fd5b5061032661068c565b6040518082815260200191505060405180910390f35b34801561034857600080fd5b5061037d600480360381019080803573ffffffffffffffffffffffffffffffffffffffff1690602001909291905050506106d3565b604051808373ffffffffffffffffffffffffffffffffffffffff1673ffffffffffffffffffffffffffffffffffffffff16815260200180602001828103825283818151815260200191508051906020019080838360005b838110156103ef5780820151818401526020810190506103d4565b50505050905090810190601f16801561041c5780820380516001836020036101000a031916815260200191505b50935050505060405180910390f35b6000809054906101000a900473ffffffffffffffffffffffffffffffffffffffff1673ffffffffffffffffffffffffffffffffffffffff163373ffffffffffffffffffffffffffffffffffffffff1614151561048657600080fd5b3373ffffffffffffffffffffffffffffffffffffffff166108fc829081150290604051600060405180830381858888f193505050501580156104cc573d6000803e3d6000fd5b5050565b606090565b60408051908101604052803373ffffffffffffffffffffffffffffffffffffffff16815260200182815250600360003373ffffffffffffffffffffffffffffffffffffffff1673ffffffffffffffffffffffffffffffffffffffff16815260200190815260200160002060008201518160000160006101000a81548173ffffffffffffffffffffffffffffffffffffffff021916908373ffffffffffffffffffffffffffffffffffffffff16021790555060208201518160010190805190602001906105a29291906107af565b5090505050565b80600290805190602001906105bf92919061082f565b5050565b565b606060028054600181600116156101000203166002900480601f01602080910402602001604051908101604052809291908181526020018280546001816001161561010002031660029004801561065d5780601f106106325761010080835404028352916020019161065d565b820191906000526020600020905b81548152906001019060200180831161064057829003601f168201915b5050505050905090565b6000809054906101000a900473ffffffffffffffffffffffffffffffffffffffff1681565b6000600460003373ffffffffffffffffffffffffffffffffffffffff1673ffffffffffffffffffffffffffffffffffffffff16815260200190815260200160002054905090565b60036020528060005260406000206000915090508060000160009054906101000a900473ffffffffffffffffffffffffffffffffffffffff1690806001018054600181600116156101000203166002900480601f0160208091040260200160405190810160405280929190818152602001828054600181600116156101000203166002900480156107a55780601f1061077a576101008083540402835291602001916107a5565b820191906000526020600020905b81548152906001019060200180831161078857829003601f168201915b5050505050905082565b828054600181600116156101000203166002900490600052602060002090601f016020900481019282601f106107f057805160ff191683800117855561081e565b8280016001018555821561081e579182015b8281111561081d578251825591602001919060010190610802565b5b50905061082b91906108af565b5090565b828054600181600116156101000203166002900490600052602060002090601f016020900481019282601f1061087057805160ff191683800117855561089e565b8280016001018555821561089e579182015b8281111561089d578251825591602001919060010190610882565b5b5090506108ab91906108af565b5090565b6108d191905b808211156108cd5760008160009055506001016108b5565b5090565b905600a165627a7a723058208846a746c1b66f48de78d8b309347fd7bc88bc206ccfd80cc1fe78b02289ed3a0029",
  "source": "pragma solidity ^0.4.24;\n\ncontract Fund {\n  address public owner;\n  uint fundID;\n  string ipfsHash;\n\n  mapping(address => FundStorage) public funds;\n  mapping (address => uint) private balances;\n\n\t/* event Deposit(address sender, uint amount); */\n  // TODO - Add withdraw event\n\n  /* event DonatedToFund(\n    address donater;\n    uint256 value;\n  ) */\n\n  constructor() {\n    owner = msg.sender;\n    fundID = 1;\n  }\n\n  struct FundStorage {\n    address fundCreator;\n    string ipfsHash;\n  }\n\n  function set(string x) public {\n    ipfsHash = x;\n  }\n\n  function get() public view returns (string) {\n    return ipfsHash;\n  }\n\n  function createFund(string ipfs) public {\n    funds[msg.sender] = FundStorage({ipfsHash: ipfs, fundCreator: msg.sender});\n  }\n\n  function getAllFunds() public view returns (string) {\n    // TODO: return all hashes here\n\n  }\n\n  function donateToFund() public payable {\n    // find what fund they want to donate to here\n    // uint fundID\n    /* var fund = funds[fundID]; */\n  }\n\n  function withdrawFunds(uint withdrawAmount) public payable {\n    require(msg.sender == owner);\n\n    msg.sender.transfer(withdrawAmount);\n  }\n\n  function balance() public constant returns (uint) {\n    return balances[msg.sender];\n  }\n}\n",
  "sourcePath": "/Users/randallkanna/Documents/code/eth/ethos/contracts/Fund.sol",
  "compiler": {
    "name": "solc",
    "version": "0.4.24+commit.e67f0147.Emscripten.clang"
  },
  "schemaVersion": "2.0.1",
  "updatedAt": "2018-07-14T22:49:03.519Z"
}