{
  "contractName": "Fund",
  "abi": [
    {
      "constant": true,
      "inputs": [
        {
          "name": "",
          "type": "uint256"
        }
      ],
      "name": "funds",
      "outputs": [
        {
          "name": "fundCreator",
          "type": "address"
        },
        {
          "name": "id",
          "type": "uint256"
        },
        {
          "name": "fundTitle",
          "type": "string"
        },
        {
          "name": "description",
          "type": "string"
        }
      ],
      "payable": false,
      "stateMutability": "view",
      "type": "function"
    },
    {
      "constant": true,
      "inputs": [],
      "name": "owner",
      "outputs": [
        {
          "name": "",
          "type": "address"
        }
      ],
      "payable": false,
      "stateMutability": "view",
      "type": "function"
    },
    {
      "inputs": [],
      "payable": false,
      "stateMutability": "nonpayable",
      "type": "constructor"
    },
    {
      "anonymous": false,
      "inputs": [
        {
          "indexed": false,
          "name": "sender",
          "type": "address"
        },
        {
          "indexed": false,
          "name": "amount",
          "type": "uint256"
        }
      ],
      "name": "Deposit",
      "type": "event"
    },
    {
      "constant": false,
      "inputs": [
        {
          "name": "x",
          "type": "string"
        }
      ],
      "name": "set",
      "outputs": [],
      "payable": false,
      "stateMutability": "nonpayable",
      "type": "function"
    },
    {
      "constant": true,
      "inputs": [],
      "name": "get",
      "outputs": [
        {
          "name": "",
          "type": "string"
        }
      ],
      "payable": false,
      "stateMutability": "view",
      "type": "function"
    },
    {
      "constant": false,
      "inputs": [
        {
          "name": "_title",
          "type": "string"
        },
        {
          "name": "_description",
          "type": "string"
        }
      ],
      "name": "createFund",
      "outputs": [],
      "payable": false,
      "stateMutability": "nonpayable",
      "type": "function"
    },
    {
      "constant": false,
      "inputs": [],
      "name": "donateToFund",
      "outputs": [],
      "payable": true,
      "stateMutability": "payable",
      "type": "function"
    },
    {
      "constant": false,
      "inputs": [
        {
          "name": "withdrawAmount",
          "type": "uint256"
        }
      ],
      "name": "withdrawFunds",
      "outputs": [],
      "payable": true,
      "stateMutability": "payable",
      "type": "function"
    },
    {
      "constant": true,
      "inputs": [],
      "name": "balance",
      "outputs": [
        {
          "name": "",
          "type": "uint256"
        }
      ],
      "payable": false,
      "stateMutability": "view",
      "type": "function"
    }
  ],
  "bytecode": "0x608060405234801561001057600080fd5b50336000806101000a81548173ffffffffffffffffffffffffffffffffffffffff021916908373ffffffffffffffffffffffffffffffffffffffff16021790555060018081905550610a1f806100676000396000f30060806040526004361061008e576000357c0100000000000000000000000000000000000000000000000000000000900463ffffffff168063155dd5ee1461009357806326a53e60146100b35780634ed3885e146101625780635adc5aa0146101cb5780636d4ce63c146101d55780637b8e8895146102655780638da5cb5b146103b1578063b69ef8a814610408575b600080fd5b6100b160048036038101908080359060200190929190505050610433565b005b3480156100bf57600080fd5b50610160600480360381019080803590602001908201803590602001908080601f0160208091040260200160405190810160405280939291908181526020018383808284378201915050505050509192919290803590602001908201803590602001908080601f01602080910402602001604051908101604052809392919081815260200183838082843782019150505050505091929192905050506104d8565b005b34801561016e57600080fd5b506101c9600480360381019080803590602001908201803590602001908080601f01602080910402602001604051908101604052809392919081815260200183838082843782019150505050505091929192905050506105b9565b005b6101d36105d3565b005b3480156101e157600080fd5b506101ea610640565b6040518080602001828103825283818151815260200191508051906020019080838360005b8381101561022a57808201518184015260208101905061020f565b50505050905090810190601f1680156102575780820380516001836020036101000a031916815260200191505b509250505060405180910390f35b34801561027157600080fd5b50610290600480360381019080803590602001909291905050506106e2565b604051808573ffffffffffffffffffffffffffffffffffffffff1673ffffffffffffffffffffffffffffffffffffffff1681526020018481526020018060200180602001838103835285818151815260200191508051906020019080838360005b8381101561030c5780820151818401526020810190506102f1565b50505050905090810190601f1680156103395780820380516001836020036101000a031916815260200191505b50838103825284818151815260200191508051906020019080838360005b83811015610372578082015181840152602081019050610357565b50505050905090810190601f16801561039f5780820380516001836020036101000a031916815260200191505b50965050505050505060405180910390f35b3480156103bd57600080fd5b506103c6610862565b604051808273ffffffffffffffffffffffffffffffffffffffff1673ffffffffffffffffffffffffffffffffffffffff16815260200191505060405180910390f35b34801561041457600080fd5b5061041d610887565b6040518082815260200191505060405180910390f35b6000809054906101000a900473ffffffffffffffffffffffffffffffffffffffff1673ffffffffffffffffffffffffffffffffffffffff163373ffffffffffffffffffffffffffffffffffffffff1614151561048e57600080fd5b3373ffffffffffffffffffffffffffffffffffffffff166108fc829081150290604051600060405180830381858888f193505050501580156104d4573d6000803e3d6000fd5b5050565b6080604051908101604052803373ffffffffffffffffffffffffffffffffffffffff16815260200160015481526020018381526020018281525060036000600154815260200190815260200160002060008201518160000160006101000a81548173ffffffffffffffffffffffffffffffffffffffff021916908373ffffffffffffffffffffffffffffffffffffffff1602179055506020820151816001015560408201518160020190805190602001906105949291906108ce565b5060608201518160030190805190602001906105b19291906108ce565b509050505050565b80600290805190602001906105cf92919061094e565b5050565b7fe1fffcc4923d04b559f4d29a8bfc6cda04eb5b0d3c460751c2402c5c5cc9109c3334604051808373ffffffffffffffffffffffffffffffffffffffff1673ffffffffffffffffffffffffffffffffffffffff1681526020018281526020019250505060405180910390a1565b606060028054600181600116156101000203166002900480601f0160208091040260200160405190810160405280929190818152602001828054600181600116156101000203166002900480156106d85780601f106106ad576101008083540402835291602001916106d8565b820191906000526020600020905b8154815290600101906020018083116106bb57829003601f168201915b5050505050905090565b60036020528060005260406000206000915090508060000160009054906101000a900473ffffffffffffffffffffffffffffffffffffffff1690806001015490806002018054600181600116156101000203166002900480601f0160208091040260200160405190810160405280929190818152602001828054600181600116156101000203166002900480156107ba5780601f1061078f576101008083540402835291602001916107ba565b820191906000526020600020905b81548152906001019060200180831161079d57829003601f168201915b505050505090806003018054600181600116156101000203166002900480601f0160208091040260200160405190810160405280929190818152602001828054600181600116156101000203166002900480156108585780601f1061082d57610100808354040283529160200191610858565b820191906000526020600020905b81548152906001019060200180831161083b57829003601f168201915b5050505050905084565b6000809054906101000a900473ffffffffffffffffffffffffffffffffffffffff1681565b6000600460003373ffffffffffffffffffffffffffffffffffffffff1673ffffffffffffffffffffffffffffffffffffffff16815260200190815260200160002054905090565b828054600181600116156101000203166002900490600052602060002090601f016020900481019282601f1061090f57805160ff191683800117855561093d565b8280016001018555821561093d579182015b8281111561093c578251825591602001919060010190610921565b5b50905061094a91906109ce565b5090565b828054600181600116156101000203166002900490600052602060002090601f016020900481019282601f1061098f57805160ff19168380011785556109bd565b828001600101855582156109bd579182015b828111156109bc5782518255916020019190600101906109a1565b5b5090506109ca91906109ce565b5090565b6109f091905b808211156109ec5760008160009055506001016109d4565b5090565b905600a165627a7a723058206a9670addc1dbf4554b16e168ee58399616df367afe3d0d2714d6ae3000c42260029",
  "source": "pragma solidity ^0.4.18;\n\ncontract Fund {\n  address public owner;\n  uint fundID;\n  string ipfsHash;\n\n  mapping(uint => Fund) public funds;\n  mapping (address => uint) private balances;\n\n\tevent Deposit(address sender, uint amount);\n  // TODO - Add withdraw event\n\n  /* event DonatedToFund(\n    address donater;\n    uint256 value;\n  ) */\n\n  constructor() {\n    owner = msg.sender;\n    fundID = 1;\n  }\n\n  struct Fund {\n    address fundCreator;\n    uint id;\n    string fundTitle;\n    string description;\n  }\n\n  function set(string x) public {\n    ipfsHash = x;\n  }\n\n  function get() public view returns (string) {\n    return ipfsHash;\n  }\n\n  function createFund(string _title, string _description) public {\n    // set requires    // require a fund cannot be changed or modified unless by owner\n    funds[fundID] = Fund({fundTitle: _title, description: _description, id: fundID, fundCreator: msg.sender});\n  }\n\n  function donateToFund() public payable {\n    // find what fund they want to donate to here\n    // uint fundID\n    /* var fund = funds[fundID]; */\n    Deposit(msg.sender, msg.value);\n  }\n\n  function withdrawFunds(uint withdrawAmount) public payable {\n    require(msg.sender == owner);\n\n    msg.sender.transfer(withdrawAmount);\n  }\n\n  function balance() public constant returns (uint) {\n    return balances[msg.sender];\n  }\n}\n",
  "sourcePath": "/Users/randallkanna/Documents/code/eth/ethos/contracts/Fund.sol",
  "compiler": {
    "name": "solc",
    "version": "0.4.23+commit.124ca40d.Emscripten.clang"
  },
  "schemaVersion": "2.0.0",
  "updatedAt": "2018-07-14T01:58:33.105Z"
}