{
  "contractName": "Fund",
  "abi": [
    {
      "constant": false,
      "inputs": [],
      "name": "renounceOwnership",
      "outputs": [],
      "payable": false,
      "stateMutability": "nonpayable",
      "type": "function"
    },
    {
      "constant": true,
      "inputs": [],
      "name": "stopped",
      "outputs": [
        {
          "name": "",
          "type": "bool"
        }
      ],
      "payable": false,
      "stateMutability": "view",
      "type": "function"
    },
    {
      "constant": true,
      "inputs": [],
      "name": "owner",
      "outputs": [
        {
          "name": "",
          "type": "address"
        }
      ],
      "payable": false,
      "stateMutability": "view",
      "type": "function"
    },
    {
      "constant": true,
      "inputs": [
        {
          "name": "",
          "type": "address"
        }
      ],
      "name": "funds",
      "outputs": [
        {
          "name": "fundCreator",
          "type": "address"
        },
        {
          "name": "ipfsHash",
          "type": "string"
        }
      ],
      "payable": false,
      "stateMutability": "view",
      "type": "function"
    },
    {
      "constant": false,
      "inputs": [
        {
          "name": "_newOwner",
          "type": "address"
        }
      ],
      "name": "transferOwnership",
      "outputs": [],
      "payable": false,
      "stateMutability": "nonpayable",
      "type": "function"
    },
    {
      "inputs": [],
      "payable": false,
      "stateMutability": "nonpayable",
      "type": "constructor"
    },
    {
      "anonymous": false,
      "inputs": [],
      "name": "Stop",
      "type": "event"
    },
    {
      "anonymous": false,
      "inputs": [],
      "name": "Start",
      "type": "event"
    },
    {
      "anonymous": false,
      "inputs": [
        {
          "indexed": true,
          "name": "previousOwner",
          "type": "address"
        }
      ],
      "name": "OwnershipRenounced",
      "type": "event"
    },
    {
      "anonymous": false,
      "inputs": [
        {
          "indexed": true,
          "name": "previousOwner",
          "type": "address"
        },
        {
          "indexed": true,
          "name": "newOwner",
          "type": "address"
        }
      ],
      "name": "OwnershipTransferred",
      "type": "event"
    },
    {
      "constant": false,
      "inputs": [
        {
          "name": "x",
          "type": "string"
        }
      ],
      "name": "set",
      "outputs": [],
      "payable": false,
      "stateMutability": "nonpayable",
      "type": "function"
    },
    {
      "constant": true,
      "inputs": [],
      "name": "get",
      "outputs": [
        {
          "name": "",
          "type": "string"
        }
      ],
      "payable": false,
      "stateMutability": "view",
      "type": "function"
    },
    {
      "constant": true,
      "inputs": [
        {
          "name": "addr",
          "type": "address"
        }
      ],
      "name": "getFundHashByAddress",
      "outputs": [
        {
          "name": "",
          "type": "string"
        }
      ],
      "payable": false,
      "stateMutability": "view",
      "type": "function"
    },
    {
      "constant": false,
      "inputs": [
        {
          "name": "ipfs",
          "type": "string"
        }
      ],
      "name": "createFund",
      "outputs": [],
      "payable": false,
      "stateMutability": "nonpayable",
      "type": "function"
    },
    {
      "constant": false,
      "inputs": [
        {
          "name": "addr",
          "type": "address"
        }
      ],
      "name": "donateToFund",
      "outputs": [],
      "payable": true,
      "stateMutability": "payable",
      "type": "function"
    },
    {
      "constant": true,
      "inputs": [],
      "name": "balance",
      "outputs": [
        {
          "name": "",
          "type": "uint256"
        }
      ],
      "payable": false,
      "stateMutability": "view",
      "type": "function"
    },
    {
      "constant": false,
      "inputs": [],
      "name": "stop",
      "outputs": [],
      "payable": false,
      "stateMutability": "nonpayable",
      "type": "function"
    },
    {
      "constant": false,
      "inputs": [],
      "name": "start",
      "outputs": [],
      "payable": false,
      "stateMutability": "nonpayable",
      "type": "function"
    }
  ],
  "bytecode": "0x60806040526000600460006101000a81548160ff02191690831515021790555034801561002b57600080fd5b50336000806101000a81548173ffffffffffffffffffffffffffffffffffffffff021916908373ffffffffffffffffffffffffffffffffffffffff16021790555033600160006101000a81548173ffffffffffffffffffffffffffffffffffffffff021916908373ffffffffffffffffffffffffffffffffffffffff1602179055506001600281905550610f03806100c46000396000f3006080604052600436106100c5576000357c0100000000000000000000000000000000000000000000000000000000900463ffffffff16806307da68f5146100ca57806340b44a13146100e15780634ed3885e1461014a5780636d4ce63c146101b3578063715018a61461024357806375f12b211461025a5780638da5cb5b146102895780638dde385a146102e0578063b69ef8a814610316578063be9a655514610341578063e2ae93fb14610358578063f2fde38b14610447578063fa0f28e41461048a575b600080fd5b3480156100d657600080fd5b506100df610546565b005b3480156100ed57600080fd5b50610148600480360381019080803590602001908201803590602001908080601f0160208091040260200160405190810160405280939291908181526020018383808284378201915050505050509192919290505050610606565b005b34801561015657600080fd5b506101b1600480360381019080803590602001908201803590602001908080601f01602080910402602001604051908101604052809392919081815260200183838082843782019150505050505091929192905050506106f6565b005b3480156101bf57600080fd5b506101c8610710565b6040518080602001828103825283818151815260200191508051906020019080838360005b838110156102085780820151818401526020810190506101ed565b50505050905090810190601f1680156102355780820380516001836020036101000a031916815260200191505b509250505060405180910390f35b34801561024f57600080fd5b506102586107b2565b005b34801561026657600080fd5b5061026f6108b4565b604051808215151515815260200191505060405180910390f35b34801561029557600080fd5b5061029e6108c7565b604051808273ffffffffffffffffffffffffffffffffffffffff1673ffffffffffffffffffffffffffffffffffffffff16815260200191505060405180910390f35b610314600480360381019080803573ffffffffffffffffffffffffffffffffffffffff1690602001909291905050506108ed565b005b34801561032257600080fd5b5061032b610953565b6040518082815260200191505060405180910390f35b34801561034d57600080fd5b506103566109b6565b005b34801561036457600080fd5b50610399600480360381019080803573ffffffffffffffffffffffffffffffffffffffff169060200190929190505050610a75565b604051808373ffffffffffffffffffffffffffffffffffffffff1673ffffffffffffffffffffffffffffffffffffffff16815260200180602001828103825283818151815260200191508051906020019080838360005b8381101561040b5780820151818401526020810190506103f0565b50505050905090810190601f1680156104385780820380516001836020036101000a031916815260200191505b50935050505060405180910390f35b34801561045357600080fd5b50610488600480360381019080803573ffffffffffffffffffffffffffffffffffffffff169060200190929190505050610b51565b005b34801561049657600080fd5b506104cb600480360381019080803573ffffffffffffffffffffffffffffffffffffffff169060200190929190505050610bb8565b6040518080602001828103825283818151815260200191508051906020019080838360005b8381101561050b5780820151818401526020810190506104f0565b50505050905090810190601f1680156105385780820380516001836020036101000a031916815260200191505b509250505060405180910390f35b6000809054906101000a900473ffffffffffffffffffffffffffffffffffffffff1673ffffffffffffffffffffffffffffffffffffffff163373ffffffffffffffffffffffffffffffffffffffff161415156105a157600080fd5b600460009054906101000a900460ff161515156105bd57600080fd5b6001600460006101000a81548160ff0219169083151502179055507fbedf0f4abfe86d4ffad593d9607fe70e83ea706033d44d24b3b6283cf3fc4f6b60405160405180910390a1565b600460009054906101000a900460ff1615151561062257600080fd5b60408051908101604052803373ffffffffffffffffffffffffffffffffffffffff16815260200182815250600560003373ffffffffffffffffffffffffffffffffffffffff1673ffffffffffffffffffffffffffffffffffffffff16815260200190815260200160002060008201518160000160006101000a81548173ffffffffffffffffffffffffffffffffffffffff021916908373ffffffffffffffffffffffffffffffffffffffff16021790555060208201518160010190805190602001906106ef929190610db2565b5090505050565b806003908051906020019061070c929190610e32565b5050565b606060038054600181600116156101000203166002900480601f0160208091040260200160405190810160405280929190818152602001828054600181600116156101000203166002900480156107a85780601f1061077d576101008083540402835291602001916107a8565b820191906000526020600020905b81548152906001019060200180831161078b57829003601f168201915b5050505050905090565b6000809054906101000a900473ffffffffffffffffffffffffffffffffffffffff1673ffffffffffffffffffffffffffffffffffffffff163373ffffffffffffffffffffffffffffffffffffffff1614151561080d57600080fd5b6000809054906101000a900473ffffffffffffffffffffffffffffffffffffffff1673ffffffffffffffffffffffffffffffffffffffff167ff8df31144d9c2f0f6b59d69b8b98abd5459d07f2742c4df920b25aae33c6482060405160405180910390a260008060006101000a81548173ffffffffffffffffffffffffffffffffffffffff021916908373ffffffffffffffffffffffffffffffffffffffff160217905550565b600460009054906101000a900460ff1681565b600160009054906101000a900473ffffffffffffffffffffffffffffffffffffffff1681565b600460009054906101000a900460ff1615151561090957600080fd5b8073ffffffffffffffffffffffffffffffffffffffff166108fc349081150290604051600060405180830381858888f1935050505015801561094f573d6000803e3d6000fd5b5050565b6000600460009054906101000a900460ff1615151561097157600080fd5b600660003373ffffffffffffffffffffffffffffffffffffffff1673ffffffffffffffffffffffffffffffffffffffff16815260200190815260200160002054905090565b6000809054906101000a900473ffffffffffffffffffffffffffffffffffffffff1673ffffffffffffffffffffffffffffffffffffffff163373ffffffffffffffffffffffffffffffffffffffff16141515610a1157600080fd5b600460009054906101000a900460ff161515610a2c57600080fd5b6000600460006101000a81548160ff0219169083151502179055507f1b55ba3aa851a46be3b365aee5b5c140edd620d578922f3e8466d2cbd96f954b60405160405180910390a1565b60056020528060005260406000206000915090508060000160009054906101000a900473ffffffffffffffffffffffffffffffffffffffff1690806001018054600181600116156101000203166002900480601f016020809104026020016040519081016040528092919081815260200182805460018160011615610100020316600290048015610b475780601f10610b1c57610100808354040283529160200191610b47565b820191906000526020600020905b815481529060010190602001808311610b2a57829003601f168201915b5050505050905082565b6000809054906101000a900473ffffffffffffffffffffffffffffffffffffffff1673ffffffffffffffffffffffffffffffffffffffff163373ffffffffffffffffffffffffffffffffffffffff16141515610bac57600080fd5b610bb581610cb8565b50565b6060600460009054906101000a900460ff16151515610bd657600080fd5b600560008373ffffffffffffffffffffffffffffffffffffffff1673ffffffffffffffffffffffffffffffffffffffff1681526020019081526020016000206001018054600181600116156101000203166002900480601f016020809104026020016040519081016040528092919081815260200182805460018160011615610100020316600290048015610cac5780601f10610c8157610100808354040283529160200191610cac565b820191906000526020600020905b815481529060010190602001808311610c8f57829003601f168201915b50505050509050919050565b600073ffffffffffffffffffffffffffffffffffffffff168173ffffffffffffffffffffffffffffffffffffffff1614151515610cf457600080fd5b8073ffffffffffffffffffffffffffffffffffffffff166000809054906101000a900473ffffffffffffffffffffffffffffffffffffffff1673ffffffffffffffffffffffffffffffffffffffff167f8be0079c531659141344cd1fd0a4f28419497f9722a3daafe3b4186f6b6457e060405160405180910390a3806000806101000a81548173ffffffffffffffffffffffffffffffffffffffff021916908373ffffffffffffffffffffffffffffffffffffffff16021790555050565b828054600181600116156101000203166002900490600052602060002090601f016020900481019282601f10610df357805160ff1916838001178555610e21565b82800160010185558215610e21579182015b82811115610e20578251825591602001919060010190610e05565b5b509050610e2e9190610eb2565b5090565b828054600181600116156101000203166002900490600052602060002090601f016020900481019282601f10610e7357805160ff1916838001178555610ea1565b82800160010185558215610ea1579182015b82811115610ea0578251825591602001919060010190610e85565b5b509050610eae9190610eb2565b5090565b610ed491905b80821115610ed0576000816000905550600101610eb8565b5090565b905600a165627a7a7230582049c5fc47e16c68ab3a6dba6de1e16cc10313b8993d9743c22321a1fd4a7a79530029",
  "source": "pragma solidity ^0.4.24;\n\nimport 'openzeppelin-solidity/contracts/ownership/Ownable.sol';\n\n/** @title Fund */\ncontract Fund is Ownable { // Library integration\n  /* event Deposit(address sender, uint amount); */\n  /* event DonatedToFund(\n  address donater;\n  uint256 value;\n  ) */\n  event Stop();\n  event Start();\n\n  address public owner;\n  uint fundID;\n  string ipfsHash;\n  bool public stopped = false; // paused\n\n  mapping(address => FundStorage) public funds;\n  mapping (address => uint) private balances;\n\n  /**\n   * @dev Only allows a function to be called when the contract is not stopped\n   */\n  modifier whenNotStopped() {\n    require(!stopped);\n    _;\n  }\n\n  /**\n   * @dev Only allows a function to be called when the contract is paused\n   */\n  modifier whenStopped() {\n    require(stopped);\n    _;\n  }\n\n  constructor() {\n    owner = msg.sender;\n    fundID = 1;\n  }\n\n  struct FundStorage {\n    address fundCreator;\n    string ipfsHash;\n  }\n\n  /** @dev sets the ipfs hash for contract\n  * @param x ipfs hash\n  */\n  function set(string x) public {\n    ipfsHash = x;\n  }\n\n  /** @dev returns the ipfshash associated\n  */\n  function get() public view returns (string) {\n    return ipfsHash;\n  }\n\n  /** @dev returns the fund associated with a users address\n  * @param addr users address\n  */\n  function getFundHashByAddress(address addr) public view whenNotStopped returns (string) {\n     return funds[addr].ipfsHash;\n  }\n\n  /** @dev Stores a ipfsHash of the users fund in a struct\n  * @param ipfs string of the IPFS hash.\n  */\n  function createFund(string ipfs) public whenNotStopped {\n    funds[msg.sender] = FundStorage({ipfsHash: ipfs, fundCreator: msg.sender});\n  }\n\n  /** @dev Stores a ipfsHash of the users fund in a struct\n  * @param addr address of the fund the user wants to send funds to\n  */\n  function donateToFund(address addr) public whenNotStopped payable {\n    // TO DO - Refactor\n    // find what fund they want to donate to here\n    // uint fundID\n    /* var fund = funds[fundID]; */\n    addr.transfer(msg.value);\n  }\n\n  // commenting this out for now - not needed for now\n  /** @dev lets the user withdraw funds from contract\n  * @param withdrawAmount is the sum the user wants to withdraw\n  */\n  /* function withdrawFunds(uint withdrawAmount) public payable {\n    require(msg.sender == owner);\n\n    msg.sender.transfer(withdrawAmount);\n  } */\n\n  /** @dev Returns the users funds\n  */\n  function balance() public constant whenNotStopped returns (uint) {\n    return balances[msg.sender];\n  }\n\n  /**\n  * @dev stops the contract\n  */\n  function stop() onlyOwner whenNotStopped public {\n    stopped = true;\n    emit Stop();\n  }\n\n  /**\n   * @dev starts the contract again and returns to normal state\n   */\n  function start() onlyOwner whenStopped public {\n    stopped = false;\n    emit Start();\n  }\n}\n",
  "sourcePath": "/Users/randallkanna/Documents/code/eth/ethos/contracts/Fund.sol",
  "compiler": {
    "name": "solc",
    "version": "0.4.24+commit.e67f0147.Emscripten.clang"
  },
  "schemaVersion": "2.0.1",
  "updatedAt": "2018-07-22T20:42:33.074Z"
}