{
  "contractName": "Fund",
  "abi": [
    {
      "constant": true,
      "inputs": [],
      "name": "owner",
      "outputs": [
        {
          "name": "",
          "type": "address"
        }
      ],
      "payable": false,
      "stateMutability": "view",
      "type": "function"
    },
    {
      "constant": true,
      "inputs": [
        {
          "name": "",
          "type": "address"
        }
      ],
      "name": "funds",
      "outputs": [
        {
          "name": "fundCreator",
          "type": "address"
        },
        {
          "name": "ipfsHash",
          "type": "string"
        }
      ],
      "payable": false,
      "stateMutability": "view",
      "type": "function"
    },
    {
      "inputs": [],
      "payable": false,
      "stateMutability": "nonpayable",
      "type": "constructor"
    },
    {
      "constant": true,
      "inputs": [],
      "name": "get",
      "outputs": [
        {
          "name": "",
          "type": "string"
        }
      ],
      "payable": false,
      "stateMutability": "view",
      "type": "function"
    },
    {
      "constant": false,
      "inputs": [
        {
          "name": "ipfs",
          "type": "string"
        }
      ],
      "name": "createFund",
      "outputs": [],
      "payable": false,
      "stateMutability": "nonpayable",
      "type": "function"
    },
    {
      "constant": false,
      "inputs": [
        {
          "name": "addr",
          "type": "address"
        },
        {
          "name": "eth",
          "type": "uint256"
        }
      ],
      "name": "donateToFund",
      "outputs": [],
      "payable": true,
      "stateMutability": "payable",
      "type": "function"
    },
    {
      "constant": true,
      "inputs": [],
      "name": "balance",
      "outputs": [
        {
          "name": "",
          "type": "uint256"
        }
      ],
      "payable": false,
      "stateMutability": "view",
      "type": "function"
    }
  ],
  "bytecode": "0x608060405234801561001057600080fd5b50336000806101000a81548173ffffffffffffffffffffffffffffffffffffffff021916908373ffffffffffffffffffffffffffffffffffffffff16021790555060018081905550610701806100676000396000f300608060405260043610610078576000357c0100000000000000000000000000000000000000000000000000000000900463ffffffff16806340b44a131461007d5780636d4ce63c146100e65780638da5cb5b146101765780639124521e146101cd578063b69ef8a81461020d578063e2ae93fb14610238575b600080fd5b34801561008957600080fd5b506100e4600480360381019080803590602001908201803590602001908080601f0160208091040260200160405190810160405280939291908181526020018383808284378201915050505050509192919290505050610327565b005b3480156100f257600080fd5b506100fb6103fb565b6040518080602001828103825283818151815260200191508051906020019080838360005b8381101561013b578082015181840152602081019050610120565b50505050905090810190601f1680156101685780820380516001836020036101000a031916815260200191505b509250505060405180910390f35b34801561018257600080fd5b5061018b61049d565b604051808273ffffffffffffffffffffffffffffffffffffffff1673ffffffffffffffffffffffffffffffffffffffff16815260200191505060405180910390f35b61020b600480360381019080803573ffffffffffffffffffffffffffffffffffffffff169060200190929190803590602001909291905050506104c2565b005b34801561021957600080fd5b5061022261050d565b6040518082815260200191505060405180910390f35b34801561024457600080fd5b50610279600480360381019080803573ffffffffffffffffffffffffffffffffffffffff169060200190929190505050610554565b604051808373ffffffffffffffffffffffffffffffffffffffff1673ffffffffffffffffffffffffffffffffffffffff16815260200180602001828103825283818151815260200191508051906020019080838360005b838110156102eb5780820151818401526020810190506102d0565b50505050905090810190601f1680156103185780820380516001836020036101000a031916815260200191505b50935050505060405180910390f35b60408051908101604052803373ffffffffffffffffffffffffffffffffffffffff16815260200182815250600360003373ffffffffffffffffffffffffffffffffffffffff1673ffffffffffffffffffffffffffffffffffffffff16815260200190815260200160002060008201518160000160006101000a81548173ffffffffffffffffffffffffffffffffffffffff021916908373ffffffffffffffffffffffffffffffffffffffff16021790555060208201518160010190805190602001906103f4929190610630565b5090505050565b606060028054600181600116156101000203166002900480601f0160208091040260200160405190810160405280929190818152602001828054600181600116156101000203166002900480156104935780601f1061046857610100808354040283529160200191610493565b820191906000526020600020905b81548152906001019060200180831161047657829003601f168201915b5050505050905090565b6000809054906101000a900473ffffffffffffffffffffffffffffffffffffffff1681565b8173ffffffffffffffffffffffffffffffffffffffff166108fc829081150290604051600060405180830381858888f19350505050158015610508573d6000803e3d6000fd5b505050565b6000600460003373ffffffffffffffffffffffffffffffffffffffff1673ffffffffffffffffffffffffffffffffffffffff16815260200190815260200160002054905090565b60036020528060005260406000206000915090508060000160009054906101000a900473ffffffffffffffffffffffffffffffffffffffff1690806001018054600181600116156101000203166002900480601f0160208091040260200160405190810160405280929190818152602001828054600181600116156101000203166002900480156106265780601f106105fb57610100808354040283529160200191610626565b820191906000526020600020905b81548152906001019060200180831161060957829003601f168201915b5050505050905082565b828054600181600116156101000203166002900490600052602060002090601f016020900481019282601f1061067157805160ff191683800117855561069f565b8280016001018555821561069f579182015b8281111561069e578251825591602001919060010190610683565b5b5090506106ac91906106b0565b5090565b6106d291905b808211156106ce5760008160009055506001016106b6565b5090565b905600a165627a7a723058208511b355cb6ff71e9c726ef1968c714f30e1334ec8e6a90acaa26d0ebce4ca5a0029",
  "source": "pragma solidity ^0.4.24;\n\n/** @title Fund */\ncontract Fund {\n  address public owner;\n  uint fundID;\n  string ipfsHash;\n\n  mapping(address => FundStorage) public funds;\n  mapping (address => uint) private balances;\n\n\t/* event Deposit(address sender, uint amount); */\n  /* event DonatedToFund(\n    address donater;\n    uint256 value;\n  ) */\n\n  constructor() {\n    owner = msg.sender;\n    fundID = 1;\n  }\n\n  struct FundStorage {\n    address fundCreator;\n    string ipfsHash;\n  }\n\n  /*\n  Commenting this out for now as it's not needed\n   function set(string x) public {\n    ipfsHash = x;\n  } */\n\n  function get() public view returns (string) {\n    return ipfsHash;\n  }\n\n  /** @dev Stores a ipfsHash of the users fund in a struct\n  * @param ipfs string of the IPFS hash.\n  */\n  function createFund(string ipfs) public {\n    funds[msg.sender] = FundStorage({ipfsHash: ipfs, fundCreator: msg.sender});\n  }\n\n  /** @dev Stores a ipfsHash of the users fund in a struct\n  * @param addr address of the fund the user wants to send funds to\n  * @param eth amount the user is attempting to send to the fund\n  */\n  function donateToFund(address addr, uint eth) public payable {\n    // TO DO - Refactor\n    // find what fund they want to donate to here\n    // uint fundID\n    /* var fund = funds[fundID]; */\n    addr.transfer(eth);\n  }\n\n  // commenting this out for now - not needed for now\n  /** @dev lets the user withdraw funds from contract\n  * @param withdrawAmount is the sum the user wants to withdraw\n  */\n  /* function withdrawFunds(uint withdrawAmount) public payable {\n    require(msg.sender == owner);\n\n    msg.sender.transfer(withdrawAmount);\n  } */\n\n  /** @dev Returns the users funds\n  */\n  function balance() public constant returns (uint) {\n    return balances[msg.sender];\n  }\n}\n",
  "sourcePath": "/Users/randallkanna/Documents/code/eth/ethos/contracts/Fund.sol",
  "compiler": {
    "name": "solc",
    "version": "0.4.24+commit.e67f0147.Emscripten.clang"
  },
  "schemaVersion": "2.0.1",
  "updatedAt": "2018-07-17T03:12:32.473Z"
}