{
  "contractName": "Fund",
  "abi": [
    {
      "constant": false,
      "inputs": [],
      "name": "unpause",
      "outputs": [],
      "payable": false,
      "stateMutability": "nonpayable",
      "type": "function"
    },
    {
      "constant": true,
      "inputs": [],
      "name": "paused",
      "outputs": [
        {
          "name": "",
          "type": "bool"
        }
      ],
      "payable": false,
      "stateMutability": "view",
      "type": "function"
    },
    {
      "constant": false,
      "inputs": [],
      "name": "renounceOwnership",
      "outputs": [],
      "payable": false,
      "stateMutability": "nonpayable",
      "type": "function"
    },
    {
      "constant": false,
      "inputs": [],
      "name": "pause",
      "outputs": [],
      "payable": false,
      "stateMutability": "nonpayable",
      "type": "function"
    },
    {
      "constant": true,
      "inputs": [],
      "name": "owner",
      "outputs": [
        {
          "name": "",
          "type": "address"
        }
      ],
      "payable": false,
      "stateMutability": "view",
      "type": "function"
    },
    {
      "constant": true,
      "inputs": [
        {
          "name": "",
          "type": "address"
        }
      ],
      "name": "funds",
      "outputs": [
        {
          "name": "fundCreator",
          "type": "address"
        },
        {
          "name": "ipfsHash",
          "type": "string"
        },
        {
          "name": "fundsRaised",
          "type": "uint256"
        }
      ],
      "payable": false,
      "stateMutability": "view",
      "type": "function"
    },
    {
      "constant": false,
      "inputs": [
        {
          "name": "_newOwner",
          "type": "address"
        }
      ],
      "name": "transferOwnership",
      "outputs": [],
      "payable": false,
      "stateMutability": "nonpayable",
      "type": "function"
    },
    {
      "inputs": [],
      "payable": false,
      "stateMutability": "nonpayable",
      "type": "constructor"
    },
    {
      "anonymous": false,
      "inputs": [],
      "name": "Pause",
      "type": "event"
    },
    {
      "anonymous": false,
      "inputs": [],
      "name": "Unpause",
      "type": "event"
    },
    {
      "anonymous": false,
      "inputs": [
        {
          "indexed": true,
          "name": "previousOwner",
          "type": "address"
        }
      ],
      "name": "OwnershipRenounced",
      "type": "event"
    },
    {
      "anonymous": false,
      "inputs": [
        {
          "indexed": true,
          "name": "previousOwner",
          "type": "address"
        },
        {
          "indexed": true,
          "name": "newOwner",
          "type": "address"
        }
      ],
      "name": "OwnershipTransferred",
      "type": "event"
    },
    {
      "constant": false,
      "inputs": [
        {
          "name": "x",
          "type": "string"
        }
      ],
      "name": "set",
      "outputs": [],
      "payable": false,
      "stateMutability": "nonpayable",
      "type": "function"
    },
    {
      "constant": true,
      "inputs": [],
      "name": "get",
      "outputs": [
        {
          "name": "",
          "type": "string"
        }
      ],
      "payable": false,
      "stateMutability": "view",
      "type": "function"
    },
    {
      "constant": true,
      "inputs": [
        {
          "name": "addr",
          "type": "address"
        }
      ],
      "name": "getFundHashByAddress",
      "outputs": [
        {
          "name": "",
          "type": "string"
        }
      ],
      "payable": false,
      "stateMutability": "view",
      "type": "function"
    },
    {
      "constant": false,
      "inputs": [
        {
          "name": "ipfs",
          "type": "string"
        }
      ],
      "name": "createFund",
      "outputs": [],
      "payable": false,
      "stateMutability": "nonpayable",
      "type": "function"
    },
    {
      "constant": false,
      "inputs": [
        {
          "name": "addr",
          "type": "address"
        }
      ],
      "name": "donateToFund",
      "outputs": [],
      "payable": true,
      "stateMutability": "payable",
      "type": "function"
    },
    {
      "constant": true,
      "inputs": [],
      "name": "balance",
      "outputs": [
        {
          "name": "",
          "type": "uint256"
        }
      ],
      "payable": false,
      "stateMutability": "view",
      "type": "function"
    }
  ],
  "bytecode": "0x608060405260008060146101000a81548160ff02191690831515021790555034801561002a57600080fd5b50336000806101000a81548173ffffffffffffffffffffffffffffffffffffffff021916908373ffffffffffffffffffffffffffffffffffffffff16021790555033600160006101000a81548173ffffffffffffffffffffffffffffffffffffffff021916908373ffffffffffffffffffffffffffffffffffffffff1602179055506001600281905550610f20806100c36000396000f3006080604052600436106100c5576000357c0100000000000000000000000000000000000000000000000000000000900463ffffffff1680633f4ba83a146100ca57806340b44a13146100e15780634ed3885e1461014a5780635c975abb146101b35780636d4ce63c146101e2578063715018a6146102725780638456cb59146102895780638da5cb5b146102a05780638dde385a146102f7578063b69ef8a81461032d578063e2ae93fb14610358578063f2fde38b1461044e578063fa0f28e414610491575b600080fd5b3480156100d657600080fd5b506100df61054d565b005b3480156100ed57600080fd5b50610148600480360381019080803590602001908201803590602001908080601f016020809104026020016040519081016040528093929190818152602001838380828437820191505050505050919291929050505061060b565b005b34801561015657600080fd5b506101b1600480360381019080803590602001908201803590602001908080601f016020809104026020016040519081016040528093929190818152602001838380828437820191505050505050919291929050505061070d565b005b3480156101bf57600080fd5b506101c8610727565b604051808215151515815260200191505060405180910390f35b3480156101ee57600080fd5b506101f761073a565b6040518080602001828103825283818151815260200191508051906020019080838360005b8381101561023757808201518184015260208101905061021c565b50505050905090810190601f1680156102645780820380516001836020036101000a031916815260200191505b509250505060405180910390f35b34801561027e57600080fd5b506102876107dc565b005b34801561029557600080fd5b5061029e6108de565b005b3480156102ac57600080fd5b506102b561099e565b604051808273ffffffffffffffffffffffffffffffffffffffff1673ffffffffffffffffffffffffffffffffffffffff16815260200191505060405180910390f35b61032b600480360381019080803573ffffffffffffffffffffffffffffffffffffffff1690602001909291905050506109c4565b005b34801561033957600080fd5b50610342610a2a565b6040518082815260200191505060405180910390f35b34801561036457600080fd5b50610399600480360381019080803573ffffffffffffffffffffffffffffffffffffffff169060200190929190505050610a8c565b604051808473ffffffffffffffffffffffffffffffffffffffff1673ffffffffffffffffffffffffffffffffffffffff16815260200180602001838152602001828103825284818151815260200191508051906020019080838360005b838110156104115780820151818401526020810190506103f6565b50505050905090810190601f16801561043e5780820380516001836020036101000a031916815260200191505b5094505050505060405180910390f35b34801561045a57600080fd5b5061048f600480360381019080803573ffffffffffffffffffffffffffffffffffffffff169060200190929190505050610b6e565b005b34801561049d57600080fd5b506104d2600480360381019080803573ffffffffffffffffffffffffffffffffffffffff169060200190929190505050610bd5565b6040518080602001828103825283818151815260200191508051906020019080838360005b838110156105125780820151818401526020810190506104f7565b50505050905090810190601f16801561053f5780820380516001836020036101000a031916815260200191505b509250505060405180910390f35b6000809054906101000a900473ffffffffffffffffffffffffffffffffffffffff1673ffffffffffffffffffffffffffffffffffffffff163373ffffffffffffffffffffffffffffffffffffffff161415156105a857600080fd5b600060149054906101000a900460ff1615156105c357600080fd5b60008060146101000a81548160ff0219169083151502179055507f7805862f689e2f13df9f062ff482ad3ad112aca9e0847911ed832e158c525b3360405160405180910390a1565b600060149054906101000a900460ff1615151561062757600080fd5b6060604051908101604052803373ffffffffffffffffffffffffffffffffffffffff1681526020018281526020016000815250600460003373ffffffffffffffffffffffffffffffffffffffff1673ffffffffffffffffffffffffffffffffffffffff16815260200190815260200160002060008201518160000160006101000a81548173ffffffffffffffffffffffffffffffffffffffff021916908373ffffffffffffffffffffffffffffffffffffffff16021790555060208201518160010190805190602001906106fc929190610dcf565b506040820151816002015590505050565b8060039080519060200190610723929190610e4f565b5050565b600060149054906101000a900460ff1681565b606060038054600181600116156101000203166002900480601f0160208091040260200160405190810160405280929190818152602001828054600181600116156101000203166002900480156107d25780601f106107a7576101008083540402835291602001916107d2565b820191906000526020600020905b8154815290600101906020018083116107b557829003601f168201915b5050505050905090565b6000809054906101000a900473ffffffffffffffffffffffffffffffffffffffff1673ffffffffffffffffffffffffffffffffffffffff163373ffffffffffffffffffffffffffffffffffffffff1614151561083757600080fd5b6000809054906101000a900473ffffffffffffffffffffffffffffffffffffffff1673ffffffffffffffffffffffffffffffffffffffff167ff8df31144d9c2f0f6b59d69b8b98abd5459d07f2742c4df920b25aae33c6482060405160405180910390a260008060006101000a81548173ffffffffffffffffffffffffffffffffffffffff021916908373ffffffffffffffffffffffffffffffffffffffff160217905550565b6000809054906101000a900473ffffffffffffffffffffffffffffffffffffffff1673ffffffffffffffffffffffffffffffffffffffff163373ffffffffffffffffffffffffffffffffffffffff1614151561093957600080fd5b600060149054906101000a900460ff1615151561095557600080fd5b6001600060146101000a81548160ff0219169083151502179055507f6985a02210a168e66602d3235cb6db0e70f92b3ba4d376a33c0f3d9434bff62560405160405180910390a1565b600160009054906101000a900473ffffffffffffffffffffffffffffffffffffffff1681565b600060149054906101000a900460ff161515156109e057600080fd5b8073ffffffffffffffffffffffffffffffffffffffff166108fc349081150290604051600060405180830381858888f19350505050158015610a26573d6000803e3d6000fd5b5050565b60008060149054906101000a900460ff16151515610a4757600080fd5b600560003373ffffffffffffffffffffffffffffffffffffffff1673ffffffffffffffffffffffffffffffffffffffff16815260200190815260200160002054905090565b60046020528060005260406000206000915090508060000160009054906101000a900473ffffffffffffffffffffffffffffffffffffffff1690806001018054600181600116156101000203166002900480601f016020809104026020016040519081016040528092919081815260200182805460018160011615610100020316600290048015610b5e5780601f10610b3357610100808354040283529160200191610b5e565b820191906000526020600020905b815481529060010190602001808311610b4157829003601f168201915b5050505050908060020154905083565b6000809054906101000a900473ffffffffffffffffffffffffffffffffffffffff1673ffffffffffffffffffffffffffffffffffffffff163373ffffffffffffffffffffffffffffffffffffffff16141515610bc957600080fd5b610bd281610cd5565b50565b6060600060149054906101000a900460ff16151515610bf357600080fd5b600460008373ffffffffffffffffffffffffffffffffffffffff1673ffffffffffffffffffffffffffffffffffffffff1681526020019081526020016000206001018054600181600116156101000203166002900480601f016020809104026020016040519081016040528092919081815260200182805460018160011615610100020316600290048015610cc95780601f10610c9e57610100808354040283529160200191610cc9565b820191906000526020600020905b815481529060010190602001808311610cac57829003601f168201915b50505050509050919050565b600073ffffffffffffffffffffffffffffffffffffffff168173ffffffffffffffffffffffffffffffffffffffff1614151515610d1157600080fd5b8073ffffffffffffffffffffffffffffffffffffffff166000809054906101000a900473ffffffffffffffffffffffffffffffffffffffff1673ffffffffffffffffffffffffffffffffffffffff167f8be0079c531659141344cd1fd0a4f28419497f9722a3daafe3b4186f6b6457e060405160405180910390a3806000806101000a81548173ffffffffffffffffffffffffffffffffffffffff021916908373ffffffffffffffffffffffffffffffffffffffff16021790555050565b828054600181600116156101000203166002900490600052602060002090601f016020900481019282601f10610e1057805160ff1916838001178555610e3e565b82800160010185558215610e3e579182015b82811115610e3d578251825591602001919060010190610e22565b5b509050610e4b9190610ecf565b5090565b828054600181600116156101000203166002900490600052602060002090601f016020900481019282601f10610e9057805160ff1916838001178555610ebe565b82800160010185558215610ebe579182015b82811115610ebd578251825591602001919060010190610ea2565b5b509050610ecb9190610ecf565b5090565b610ef191905b80821115610eed576000816000905550600101610ed5565b5090565b905600a165627a7a72305820ab4f3078a785383dc18aa24c95534fa2bacf808cf46aaf20e55c09e2c88d3a980029",
  "source": "pragma solidity ^0.4.24;\n\nimport 'openzeppelin-solidity/contracts/lifecycle/Pausable.sol';\n\n/** @title Fund */\ncontract Fund is Pausable { // Library integration\n  /* event Deposit(address sender, uint amount); */\n  /* event DonatedToFund(\n  address donater;\n  uint256 value;\n  ) */\n\n  address public owner;\n  uint fundID;\n  string ipfsHash;\n  /* bool public stopped = false; // paused */ // removed because I'm using pausable\n\n  mapping(address => FundStorage) public funds;\n  mapping (address => uint) private balances;\n\n  // commenting this out because I mvoed to pausable\n  /**\n   * @dev Only allows a function to be called when the contract is not stopped\n   */\n  /* modifier whenNotStopped() {\n    require(!stopped);\n    _;\n  } */\n\n  /**\n   * @dev Only allows a function to be called when the contract is paused\n   */\n  /* modifier whenStopped() {\n    require(stopped);\n    _;\n  } */\n\n  constructor() {\n    owner = msg.sender;\n    fundID = 1;\n  }\n\n  struct FundStorage {\n    address fundCreator;\n    string ipfsHash;\n    uint fundsRaised;\n  }\n\n  /** @dev sets the ipfs hash for contract\n  * @param x ipfs hash\n  */\n  function set(string x) public {\n    ipfsHash = x;\n  }\n\n  /** @dev returns the ipfshash associated\n  */\n  function get() public view returns (string) {\n    return ipfsHash;\n  }\n\n  /* // randall TODO document this\n  function getFundsRaised(address addr) public view whenNotPaused returns (uint) {\n    return funds[addr].fundsRaised;\n  } */\n\n  /** @dev returns the fund associated with a users address\n  * @param addr users address\n  */\n  function getFundHashByAddress(address addr) public view whenNotPaused returns (string) {\n     return funds[addr].ipfsHash;\n  }\n\n  /** @dev Stores a ipfsHash of the users fund in a struct\n  * @param ipfs string of the IPFS hash.\n  */\n  function createFund(string ipfs) public whenNotPaused {\n    funds[msg.sender] = FundStorage({ipfsHash: ipfs, fundCreator: msg.sender, fundsRaised: 0});\n  }\n\n  /** @dev Stores a ipfsHash of the users fund in a struct\n  * @param addr address of the fund the user wants to send funds to\n  */\n  function donateToFund(address addr) public whenNotPaused payable {\n    /* funds[addr].fundsRaised += msg.value; */\n\n    addr.transfer(msg.value);\n  }\n\n  // commenting this out for now - not needed for now\n  /** @dev lets the user withdraw funds from contract\n  * @param withdrawAmount is the sum the user wants to withdraw\n  */\n  /* function withdrawFunds(uint withdrawAmount) public payable {\n    require(msg.sender == owner);\n\n    msg.sender.transfer(withdrawAmount);\n  } */\n\n  /** @dev Returns the users funds\n  */\n  function balance() public constant whenNotPaused returns (uint) {\n    return balances[msg.sender];\n  }\n\n  // Example of implement pause contract. Removing this in favor of using openzeppelin\n  /**\n  * @dev stops the contract\n  */\n  /* function stop() onlyOwner whenNotStopped public {\n    stopped = true;\n    emit Stop();\n  } */\n\n  /**\n   * @dev starts the contract again and returns to normal state\n   */\n  /* function start() onlyOwner whenStopped public {\n    stopped = false;\n    emit Start();\n  } */\n}\n",
  "sourcePath": "/Users/randallkanna/Documents/code/eth/ethos/contracts/Fund.sol",
  "compiler": {
    "name": "solc",
    "version": "0.4.24+commit.e67f0147.Emscripten.clang"
  },
  "schemaVersion": "2.0.1",
  "updatedAt": "2018-08-04T00:27:04.124Z"
}